:020000040000FA
:1010000080300120E58A000017070500D18A000022
:10101000D18A0000D18A0000D18A000000000000BF
:10102000000000000000000000000000A18C000093
:10103000D18A000000000000118C0000D18A00005D
:10104000958F000041150500958F0000958F0000D9
:10105000958F0000958F0000958F0000958F000000
:1010600011150500958F0000958F00002B150500C8
:10107000958F0000958F0000958F0000958F0000E0
:10108000958F0000958F0000958F0000958F0000D0
:10109000958F0000958F0000958F0000958F0000C0
:1010A000958F0000958F0000958F0000958F0000B0
:1010B000958F0000958F0000958F0000958F0000A0
:1010C000958F0000958F0000958F0000958F000090
:1010D000958F0000958F0000958F0000958F000080
:1010E000958F0000958F0000958F0000958F000070
:1010F000958F0000958F0000958F0000958F000060
:10110000014B1B685B68184700040020014B1B68FB
:101110009B68184700040020014B1B681B69184797
:1011200000040020014B1B685B6918470004002085
:10113000014B1B689B69184700040020014B1B688A
:10114000DB69184700040020014B1B681B6A184725
:1011500000040020014B1B689B6A18470004002014
:10116000014B1B681B6B184700040020014B1B68D8
:10117000DB6B18470004002010B4034C2468E468BB
:10118000A4465DF8044B604700040020014B18782A
:10119000704700BF90120020042810B511D883B109
:1011A00004280CBF10242824A1420AD2064C54F86B
:1011B000200018B141568A42A8BF0A461A70002082
:1011C00010BD6FF01500FBE7800D002030B5024622
:1011D000114890F91C3093421ADD90F92430934263
:1011E00018DAD31A856A0D4CE85C235693420ED068
:1011F0000E3400290CBF0346431CA542D8B206D1C9
:1012000029B1013AD2B2012A01D80130C0B230BDB1
:101210000D20FCE70020FAE7800D002038A905002A
:1012200008B5054B93F91C30984203DAFFF7CEFF5F
:10123000024B1B56184608BD800D002038A905003A
:1012400010B51C4C94F82C3073B9012384F82C3061
:1012500002F072FF48B1184BA362D823236284F8CE
:1012600024300823A361237710BD02F07BFF002800
:10127000F1D102F081FF0028EDD102F03FFF38B13B
:101280000E4BA362D823236284F824300423E9E7B9
:1012900002F03EFF0028F3D102F044FF0028EFD116
:1012A00002F054FF0028EBD14FF4DF71742002F0FC
:1012B00035FE00BF800D002073A9050046A905007A
:1012C0004FF08042012353600023C2F80031014AED
:1012D00013707047AD0D0020014B01221A7070474A
:1012E000AD0D00204FF08043D3F8003123B9034BFC
:1012F000187800F0010070470120FAE7AD0D0020DA
:1013000070B50A4D012604462E70FFF7EBFF30B989
:101310004FF080436E706C60C3F8046370BD002CA6
:10132000FCD0A04700236B60F8E700BFB00D0020A1
:10133000024B00221A705A705A607047B00D00209C
:1013400010B5034C208100F07FFD608110BD00BF0F
:10135000B00D0020014B5889704700BFB00D002030
:1013600010B5EFF3108472B6064A937B0133DBB2FB
:101370009373937B012B01D103F0E9FA04B962B6B0
:1013800010BD00BFB00D002038B5FFF7E9FFFFF733
:10139000A9FF094C4FF0804540B103F003FB012346
:1013A0002B610423E3730023237438BD0323E37309
:1013B0000123C5F80433F6E7B00D002010B5EFF3B4
:1013C000108472B6094A937B23B940F2DD116D2077
:1013D00002F0A4FD937B013BDBB29373937B0BB9CB
:1013E000FFF76EFF04B962B610BD00BFB00D00205C
:1013F000024BD87B003818BF01207047B00D002089
:1014000073B51B4D6B7C63B9E86900F0030003F012
:10141000B8FA30B1EFF3108372B6EA7B1AB103B9B0
:1014200062B602B070BD0122EA7303B962B64FF032
:1014300080430822C3F808234FF42073ADF8063028
:10144000BDF80640A4B2631E9BB2ADF80630002C76
:10145000F6D14FF080460748C6F80C4103F01AFC5D
:1014600085F82140FFF790FF0823C6F80433D8E73A
:10147000B00D0020D00D00202DE9F041384C94F83B
:101480002230002B69D04FF08043D3F80071D3F89D
:10149000046157B10122C3F8082363782BB1636854
:1014A000002565700BB1984765604EB14FF08043E1
:1014B0000022C3F804210222C3F80823FFF7A0FF8B
:1014C0004FF080462748D6F80C8194F82150EDB2B1
:1014D00003F0E4FB20B140F27E216D2002F01EFDFE
:1014E00047B1E37B032B05D10423E37303F05AFADE
:1014F00001233361B8F1000F16D04FF08043002272
:10150000C3F80C21E37B042B02D04FF42771E4E7EE
:1015100002F03CFEC0B14FF080430022C3F8342CEF
:101520000223E373FFF74AFF4DB1002384F8213013
:10153000E37B022B01D1FFF727FFFFF73FFFBDE859
:10154000F041084803F0B9BB02F000FE0028E2D1E8
:1015500002F012FE0028DED1E2E7BDE8F08100BF14
:10156000B00D0020D00D002010B5054CE06900F052
:10157000030003F006FA0028F8D0002010BD00BFD9
:10158000B00D0020F8B5054650B10278042A07D8FE
:10159000437842B9013B1F2B02D88378212B07D90E
:1015A0006FF0150097E0002BFAD18378002BF7D16C
:1015B000854B0127C3F88070BFF34F8FBFF36F8F48
:1015C0004FF08046C3F88071804C4FF0FF33C6F86F
:1015D00008330023C6F80031C6F80431C6F80C31D0
:1015E000A373AB88A38103F0B7F908B12770A77381
:1015F000D6F80C24D6F80C34D20303D5DF0701D576
:10160000FFF76AFE4FF4AF60FFF79AFE2B78A978D8
:1016100063740022E261A1742274042B2CD8DFE8E9
:1016200003F00503192729000123E36103F09BF967
:10163000002851D003F09EF9E36903F003039842B8
:101640004AD1AB79EBB9FFF78FFF00281EDA40F2E1
:10165000044113E0FFF784FE4FF08043D3F80C14ED
:10166000D3F80C24CE03F9D5D007F7D50223DCE755
:10167000574BDAE7574BD8E740F2F6316D2002F0CE
:101680004DFC4FF080430222C3F80423A37C6BB1CE
:101690002B785BB9FFF726FE054602F085FC6FF05C
:1016A0000043002D00F08D80C4E905034FF0804316
:1016B000D3F80C24D3F80C34D20303D5DB0701D5BF
:1016C000FFF70AFE404A01230020E07384F822302D
:1016D000C2F880311360F8BD4FF080430122DA6018
:1016E0000022C3F80421E269C3F8182502F006FDC0
:1016F00010B34FF080534FF08042D3F84432C3F31D
:101700004233C2F83C3502F0F9FC10B34FF080438D
:101710000122C3F84C254FF0804301229A60022237
:10172000C3F80423AA79002AB0D1D3F8042391077F
:101730001CD440F2A931A1E702F0EAFC0028D8D17C
:1017400002F0F0FC0028D4D102F000FD0028D0D136
:10175000D9E702F0DDFC0028D8D102F0E3FC002834
:10176000D4D102F0F3FC0028D0D1D4E71A4A16698C
:10177000116941F010011161D3F8043106F010062F
:101780000BB903F0A7FA4FF08047D7F8043133B113
:10179000FFF7EAFE002805DA40F2C3316EE703F0F6
:1017A00097FAF2E726B90C4A136923F01003136184
:1017B0004FF080430222C3F808230022C3F804211B
:1017C00064E7C4E9053071E700E100E0B00D0020F6
:1017D000010002000100030000ED00E010B50D4C17
:1017E00004F1200003F05AFA48B9E37B022B01D13F
:1017F000FFF7CAFDBDE81040074803F05EBA074A8C
:10180000012384F82130BDE81040C2F80031FFF711
:10181000A7BD00BFB00D0020D00D002000E100E00A
:101820000A4B07B51A781AB13C216F2002F076FBFB
:101830005A783AB9012201905A70FFF791FD019848
:10184000FFF75EFD002003B05DF804FBD40D00201F
:1018500038B5084C25781DB152216F2002F05EFB8F
:10186000637823B1FFF764FD6570FFF7A7FD0020E3
:1018700038BD00BFD40D0020014B5B68184700BF86
:10188000D40D0020014B9B68184700BFD40D0020E9
:10189000014BDB68184700BFD40D0020034B1A78BA
:1018A0000AB9FFF757BD988D704700BFD40D0020CF
:1018B000024B1B780BB9FFF7A3BD7047D40D002076
:1018C000014B5B69184700BFD40D002010B5144CC4
:1018D0002378A3B1236A9847002806DB94F82A30BE
:1018E00023B1012384F82E30002010BDFFF7E8FF5C
:1018F0000028F6DA4FF48B716F2002F00FFB094BD2
:101900006361094BA361094BE361094B6360094BB8
:10191000A360094BE360FFF735FE0028E1D0E4E760
:10192000D40D002069150000DD170000F113000040
:1019300061130000BD130000CB490000064B10B539
:101940001C7824B140F275116F2002F0E7FAFFF71E
:10195000F7FC204610BD00BFD40D0020034610B395
:10196000007888B91A79012A1ED85A79012A1BD819
:101970009A680E49643A8A4216D8D8680C4B984245
:101980002CBF00200120704701280CD11A79012AB0
:1019900009D85A79012A06D8DA680449643A8A4291
:1019A00001D89868EAE70020704700BF3C86010034
:1019B0000040420F10B5054C236813B1984700232F
:1019C0002360BDE8104001F06DBB00BF040E002095
:1019D00038B5044620B940F2A9116A2002F09EFAF7
:1019E00090F82850072900F2EC80DFE801F0044667
:1019F0004676808AA39190F82630033B012B02D9CA
:101A00004FF4DA71E9E7052390F8241080F82630C6
:101A1000002380F8293061BB714B0122C3F84015C7
:101A2000C3F84011C3F84415C3F84411C3F848156E
:101A3000C3F84811C3F84C15C3F84C11DA6002F032
:101A4000E0FF2378012B0FD101F0D6FCC4E9060199
:101A5000236A0021284698470146204602F0E8FF05
:101A6000022840F0B18038BDD4E90423C4E906233C
:101A7000EEE7BDE83840FFF79DBF90F82630DA1E4C
:101A8000012A02D940F2D511A7E790F824202AB103
:101A900021462846BDE8384002F099BF042B0CBF10
:101AA00002230123012980F82630036A0AD1052187
:101AB000284698470028D6D00378002BD3D04FF47F
:101AC000F5718AE70621284698470028CBD003788D
:101AD000002BC8D040F2EF117FE790F82630052B9D
:101AE00002D04FF4FB7178E7036A0221B2E790F865
:101AF0002630052B02D04FF4FE716EE7036A0121F8
:101B0000A8E790F82630052BB3D040F2022164E715
:101B100090F82630052B02D040F207215DE7036ADA
:101B20000A21284698470146204602F081FF40F2EC
:101B30000A2152E790F82630052B07D090F825208F
:101B40000AB1032B02D040F20E2146E794F824207C
:101B5000002A9DD194F8293093B1022384F82630CD
:101B600084F82920236A08212846984700283FF452
:101B70007AAF0378002B3FF476AF40F21A212CE7BE
:101B800094F8252062B194F8270084F82530214686
:101B900001F038FC00287FF466AF40F21F211CE7FB
:101BA000022384F826300721236A28469847002814
:101BB0003FF459AF0378002B3FF455AF40F2262194
:101BC0000BE740F22B2108E720B1012805D1236A59
:101BD00004213FE7236A03213CE74FF40F71FCE641
:101BE000008000402DE9F8438846074680B300F0A6
:101BF00037F84FF0000905465FFA89F6AE420AD27F
:101C0000304600F033F890F8264009F10109002C25
:101C1000F2D1FF2E03D16FF00B00BDE8F883304600
:101C200000F024F80546848480F8264080F8286077
:101C300001460A4801F092FB202885F827000AD0C7
:101C400001232F6285F82630204688F80060E4E7FB
:101C50006FF01500E1E76FF02200DEE7D119000018
:101C6000014B1879704700BF080E0020054B1A7908
:101C7000824283BF1B6800EB400003EB0010002092
:101C8000704700BF080E002010B510F003040BD100
:101C9000074A1171106030B101EB41010A01214680
:101CA00002F0C4FA204610BD6FF00D00FBE700BF44
:101CB000080E002043F60952C0F3080302FB03F3A9
:101CC000400A03F5807302FB00F000EB53207047DD
:101CD00043F6095CC0F3080210B50CFB02F2C0F336
:101CE0004E24030E43EA01230CFB04F0090E02F517
:101CF00080724FEA411C00EB52205A01B2EB030EF6
:101D00004CEAD36C6CEB01044FEA841C4FEA8E1250
:101D1000B2EB0E024CEA9E6C6CEB040C4FEACC0C5E
:101D20004CEA527CD200D31841EB0C01DA03C90310
:101D3000801841EA534141F1000110BD430B48F2C4
:101D4000376C0CFB03F34FEA134C00B5104B43F612
:101D5000095E0EFB1C0000FB03F35B0D0EFB03FE94
:101D600003EB4C230EF5745C0CF1080CB0EB5C2F0C
:101D700008D80EF5807EA0EB5E20C0B20B6010701C
:101D80005DF804FB013300200B6010705DF804FB6C
:101D90006F0C0100F8B5274DA94246D8264E274FB3
:101DA000450F45EAC105A6FB0514C0F34F31A40B4E
:101DB00001EB054107FB1411A6FB0151890B41EA18
:101DC00004411F4C04FB110448F2376C600B0CFB00
:101DD00000F04FEA104C43F6095E1A480EFB1C4512
:101DE00005FB00F0400D0EFB00FE00EB4C200EF555
:101DF000745C0CF1080CB5EB5C2F12D80EF5807EEC
:101E0000A5EB5E2E5FFA8EFE069D85F800E00D06BE
:101E100028184FEA112141F100011860596014603F
:101E2000F8BD01304FF0000EEEE796219B2002F046
:101E300075F800BFFF7F841E83DE1B43000024F47F
:101E40000080841E6F0C0100420B48F2376303FBD5
:101E500002F2120C43F6095C074B0CFB120101FB6A
:101E60000333013B5B0D0CFB03FC5002B1EB5C2F19
:101E700088BF0130184470476F0C010010B5094A43
:101E800092F80033202B03D13E21022002F046F8C5
:101E900018214B43D018BDE81040D35840680321A7
:101EA000184700BF100E00200C4B0D491B78012B6A
:101EB00014BF4FF4E0224FF4C022C1F8482318BFEA
:101EC0000023C1F80823074A99000A440021012B86
:101ED00042F8041B00D170470123F8E7501100209D
:101EE00000B0004040B1004070B5EFF3108472B60E
:101EF000094A0A4B0025D2F80415D2F804612EB124
:101F0000596801315960C2F80451F4E75B6804B9BB
:101F100062B6C0E9001370BD00B00040501100204F
:101F2000094BD3F80435C01A20F07F4323F0010396
:101F30003BB120F07F40B0F5000F8CBF02200020A5
:101F400070470120704700BF00B0004008B5124B39
:101F5000D3F8042522F00302C3F80425D3F808259A
:101F600042F00302C3F80825102292FAA2F2B2FA54
:101F700082F2092A04DD094840F2A73101F0C4FFCA
:101F8000C3F810250122DA60054B4FF48072C3F8C4
:101F900080211A6008BD00BF0080004040CE0500CF
:101FA00000E100E0114B4FF40062C3F88020BFF362
:101FB0004F8FBFF36F8FC3F880210D4B01225A6002
:101FC0009A60D3F80425002AFBD10A49C3F8081304
:101FD0004FF4E021C3F84813C3F84021C3F844216B
:101FE000C3F84821C3F80421704700BF00E100E0B6
:101FF00000B00040020007000D4B4FF48072C3F8A0
:102000008020BFF34F8FBFF36F8FC3F88021094B40
:1020100001214FF0FF325960C3F808230022C3F8B2
:102020004025C3F840211961034B1A72704700BF65
:1020300000E100E000800040501100202448FF2310
:1020400010B54FF0FF32002443724FF0FF33C0E968
:10205000042304704460FFF7CFFFFFF7A3FF1D4A7E
:102060001D4BC2F800424FF40061196080691B49A2
:1020700030B901230B60194B0222C3F8042310BDB1
:10208000174B184CC3F8A845C3F8AC05C3F85C1946
:102090004FF40021C3F804150521C2F840150121B1
:1020A0001160D2F840110029FBD04FF40021C3F891
:1020B000081501215160D1600021C2F84011C2F819
:1020C0004015C3F8A815C3F8AC15C3F8AC15D2E792
:1020D000501100200080004000E100E000B000400E
:1020E00000F0014040810040014BD3E904017047FA
:1020F00050110020014BD3F80405704700B0004098
:1021000013B56846FFF7F0FEDDE90004FFF7D2FDE6
:10211000024B0021E4FB030102B010BD0080841ECD
:10212000B1F1FF3F08BFB0F1FF3F2DE9F041404C56
:1021300005460E4638D13F4DD5F800317BB33E4EB3
:102140003E4BC6F808354FF00008FFF7ADFE84F8A7
:102150000980FFF751FFFFF7F9FE394BC5F8008101
:10216000384FC6F8A8354FF40023C6F8AC75C6F84A
:10217000043502F081FDD5F800312BB10123C5F8FB
:1021800000817B60FB60F4E7013041F10001022334
:10219000C4E904012370FF236370BDE8F08102F0FD
:1021A0006BFDC51C41F10006D4E90473B34208BFBE
:1021B000AF42F2D0204B214AC3F80825FFF774FE46
:1021C0001C4A4FF4803125F07F480023C2F80813E1
:1021D0004046C2F84813C2F84031FFF7A1FE20B1D3
:1021E0004FF43F716C2001F099FEC2F84085C2F8AF
:1021F00044132378012B06D127F07F473846FFF799
:102200008FFE0128FAD000236372FFF7F5FEFFF777
:102210009DFE094A01234FF000412370C2F80415C6
:1022200004226270034AC4E90456C2F84833B4E792
:102230005011002000B0004000F001400000088074
:1022400000B100400080004037B540B1041FE4B247
:10225000022C13D940F295316C2001F05FFE214B26
:102260004FF48032C3F80823C3F84005C3F8400197
:10227000D3F840310093009B03B030BD1A4D2B784A
:1022800093B16A7882420FD1184A1949C2F80815E9
:10229000012B01D1FFF7B0FE00232B704FF0FF326E
:1022A0004FF0FF33C5E90423124A4FF48033A340B3
:1022B000C2F80833C2F8483304F5A87352F8230073
:1022C000FFF72EFE012818BF0B4B22B24FEA840401
:1022D0001CBF00211951084B53F822300193019B78
:1022E000CAE700BF008000405011002000F001400C
:1022F0000000088000B0004040B1004070B52C4B99
:1023000030B1041FE4B2022C2AD94FF454710BE00F
:10231000D3E90401B1F1FF3F08BFB0F1FF3F06D19F
:102320001B7A23B94FF44A716C2001F0F7FD12B902
:102330004FF44B71F8E71F4B4FF480310120C3F885
:102340000413C3F840255864D3F8441500248A4286
:10235000C3F8444503D82046FFF776FF204670BDFA
:10236000197829B15B78834202D14FF45371DBE7CE
:10237000114B124E22F07F41A20013444FF48035DE
:10238000A5400022C6F808530846C6F848531A600C
:10239000FFF7C6FD48B904F5A874012046F82410DB
:1023A000C6F80453C6F84453D9E71046D7E700BF30
:1023B000501100200080004040B1004000B00040BB
:1023C00008B5FFF771FD054B4FF0FF32C3F8082346
:1023D0000022C3F84025C3F8402108BD008000401A
:1023E00008B50122084B10B1C3F8442308BDC3F857
:1023F0004823FFF701FE054B4FF0FF3118704FF0F7
:10240000FF30C3E90401F1E700B0004050110020A3
:10241000F8B5164D164E00244FF48037D5F8043326
:1024200007FA04F21A4212D056F824307BB1002386
:1024300046F8243004F5A87355F82300FFF770FD23
:1024400028B1201DC5F80823C0B201F03DFA0134BF
:10245000032CE3D1054BD3F8042132B10022C3F899
:102460000421044A536801335360F8BD00B00040B2
:1024700040B100405011002010B51C4C637AFF2B76
:102480002DD0237883B10122022B227221D1184B47
:102490004FF40022C3F80825002323704FF0FF32C9
:1024A0004FF0FF33C4E90423124BD3F80423D203C3
:1024B0001BD5D3F84021C2B14FF480320020C3F8BD
:1024C0000823C3F84001FF236372BDE8104001F008
:1024D000FBB9022360782370FFF7B6FEE4E7054BF3
:1024E000D3F804330BB10720EFE710BD50110020E3
:1024F00000F00140008000402DE9F04F95B01C46EF
:102500000592CDE90201FFF7EFFD18230191064680
:10251000BF49082004EB440213FB0404631801EBD9
:10252000C202083265581F7BD3F8048093F80D90DF
:1025300004970FCA0EAC25F07F4A84E80F0050467E
:10254000FFF7B8FBB34B7C1C9842044400F2968121
:102550009C4200F39380002C55DBFFF799F9B9F109
:10256000010F834608D0AC4FD7E90223B3F1FF3FF8
:1025700008BFB2F1FF3F4BD0FFF790F9019B0690E7
:10258000B3F1FF3F08BFB6F1FF3F03D0B54278EB90
:10259000030378D2029B0322EB1A934269DBBBF15F
:1025A000000F00F0F78000230793029BB5EB030BAD
:1025B000039B68EB0307FFF771F90930C2178345E6
:1025C00077EB020380F0EA80059B012B00F0F0809E
:1025D000079B002B5AD1019BB3F1FF3F08BFB6F117
:1025E000FF3F53D0721B63EB0803042A73F1000111
:1025F00080F23681012A73F100033ADADDF81CB06B
:1026000026F07F4A52E004F1F45404F59024A4E744
:102610000028B1D1FFF742F9019B0690B3F1FF3FCB
:1026200008BFB6F1FF3F00F0B280B54278EB03037C
:10263000C0F0AD803B7C002B069B14BF00221A46E5
:102640003346EB1A9A4214DC01230793D7E902328E
:10265000B2F1FF3F08BFB3F1FF3FA6D00699EB1AD6
:1026600068EB02028B4272F100039ED2B9F1010FB6
:102670009BD00024204615B0BDE8F08F04F16144E2
:1026800004F5F70469E73346002285E7284641460A
:10269000FFF746FD4FF0000BB8F1FF3F08BFB5F163
:1026A000FF3F00F0F0802E46CDF804805046FFF743
:1026B00001FB5A4B221A9A420ED3001B9842C0F0DB
:1026C0008B80544B9A4200F2C080984240F2E580E1
:1026D000C0F1614202F5F702D3170020FFF70EFEAA
:1026E00004460028C5D04C4FB9F1010FD7E90223A9
:1026F00074D0BBF1000F40F09580B3F1FF3F08BFED
:10270000B2F1FF3F00F0B3800120FFF769FE3B7C90
:10271000002B40F09F806A1E68F100030620FFF73F
:10272000EDFD002850D0B9694FF0804200230B60C6
:10273000C2F80835049B8DF8443000238DF84830EA
:1027400008934FF0FF324FF0FF33CDE90A238DF8A5
:102750004590CDF83C800E9508AF0FCFDFF8C090C4
:102760004E460FC60FCF0FC697E80F0086E80F0042
:1027700028464146FFF7ACFA049B0133181841F193
:102780000001C9E90401204615B0BDE8F08F029BA5
:10279000C21C56E7204FCDF81CB057E7B9F1010B2A
:1027A0002846414618BF4FF0010BFFF7B9FC73E70D
:1027B000019BB3F1FF3F08BFB6F1FF3F72D026F097
:1027C0007F4A4FF0000B71E7BA694FF08041012357
:1027D000C1F808351360ADE742427DE7B3F1FF3F32
:1027E00008BFB2F1FF3F23D1BBF1000F8FD0069B92
:1027F000F21A019B4FF0050063F10003FFF77EFD25
:10280000002845D03B7C002B85D101233B7482E717
:10281000100E0020FF7F841E701100200040420F28
:1028200018110020B3F1FF3F08BFB2F1FF3FDED027
:10283000FFF728F84FF0FF324FF0FF33C7E90223CC
:10284000BBF1000F3FF463AFD1E702F1F45202F5A0
:10285000902241E70520FFF7F7FC00233B745AE77D
:1028600028464146DDF81CB0FFF75AFC14E7FFF795
:1028700003F802F001FAC7E9020145E740F21E4100
:10288000702001F04BFB40F22A71702001F046FBF2
:1028900040F22121702001F041FB40F2E4717020F0
:1028A00001F03CFB40F28E61702001F037FB00BF6D
:1028B0002DE9F04F8D4F7C7C04EB44033B4483B007
:1028C0005D78202D48D08A4BE6B26400002B00F0E2
:1028D0008980884BDFF82492002B5FD005EB4612ED
:1028E00007EB420A4FEA46189AF81C30013BDBB26C
:1028F000052B34D8804A12F803B0BBF1080F2ED054
:10290000AFF30080EFF3108372B634443C449AF87E
:102910001D206270A278AA4204BF2022A27013B9BF
:10292000AFF3008062B6A84405EB450509EBC5028C
:1029300007EB4808506859F835300122594688F8A5
:102940001C2098477C7C04EB44033B44E6B25D7852
:10295000202D4FEA4404C1D103B0BDE8F08F40F20E
:102960005961702001F0DAFA62B6A84405EB45051A
:1029700009EBC50207EB4808506859F835300122C9
:10298000594688F81C2098477C7C04EB44033B4460
:10299000E6B25D78202D4FEA4404DDD005EB461207
:1029A00007EB420A4FEA46189AF81C30013BDBB2AB
:1029B000052BD4D8504A12F803B0BBF1080FCED083
:1029C000AFF30080EFF3108372B634443C449AF8BE
:1029D0001D206270A278954204BF2022A270002BB5
:1029E000C3D1C1E7434BDFF810B1DFF810A14FF0BE
:1029F0002009002B4FD005EB461207EB42024FEAAD
:102A00004618137F013BDBB2052BA8D81BF8031037
:102A10000829A4D0EFF3108372B634443C44527FAB
:102A20006270A278954208BF84F80290002B52D0C1
:102A3000A84407EB480805EB45050AEBC5025AF820
:102A400035305068012288F81C2098477C7C04EBC4
:102A500044033B44E6B25D78202D4FEA4404CAD1DA
:102A60007AE762B6A84405EB45050AEBC50207EB19
:102A7000480850685AF83530012288F81C209847D9
:102A80007C7C04EB44033B44E6B25D78202D4FEAA6
:102A900044043FF461AF05EB461207EB42024FEAF4
:102AA0004618137F013BDBB2052B3FF658AF1BF8EE
:102AB000031008293FF453AFEFF3108372B6344488
:102AC0003C44527F6270A278954208BF84F802901D
:102AD000002BC7D1C5E70191AFF3008062B6A844CF
:102AE000019905EB450507EB4808A6E770110020A2
:102AF0000000000000000000A4A90500100E002046
:102B00002DE9F04F85B0DFF80C81019301EB410313
:102B10004FF0200C18F8034003916445924682F868
:102B200000C073D04B01DFF8F09006469B4610E0E2
:102B3000727B012A02D0427D012A57D00BEB04039D
:102B400008EB43038AF800405B7F202BA4465DD04E
:102B50001C4604EB440009EBC000D0E9032387685E
:102B60003568716813EB070E42F10002754571EB91
:102B700002024FEA4403DBD21D46019B83F800C0EA
:102B8000039B4FEA431B281909EBC0003768B36861
:102B9000D0F808A07268C168DB1942F100029A45BA
:102BA00071EB020310D3437D012B02D0737B012B09
:102BB00003D0012005B0BDE8F08FFEF76FFEAAEB51
:102BC000070701308742F4DA019A254409EBC5056D
:102BD0001470A97DB27B0BEB0403914208EB430315
:102BE00010D95C7F202CE4D06500CCE70293FEF77F
:102BF00055FEED1B01308542A0DA029B9AF800C019
:102C00001D46BAE7002005B0BDE8F08F019B1C709F
:102C1000CFE700BF70110020100E00202DE9F04F0B
:102C200083B00D4616461F469DF83090FFF70CF90D
:102C30002A686B68861947F10007964277EB030311
:102C400042D3DFF88C8005E05E4577EB04033BD38D
:102C5000C5E900B40DF107030DF106024946284607
:102C6000FFF74EFF88BB9DF8073003EB430308EBEB
:102C7000C303D3E902A41A691AF1030B44F1000457
:102C800012EB0B0B6A7B44F10004012ADCD05B7D64
:102C9000012BD9D1FEF702FEABEB0A0301308342D0
:102CA000D2DA9DF8073003EB430308EBC303D3E903
:102CB000024AFEF7F3FD013010EB040B4AEBE0741F
:102CC0005E4577EB0403C3D2002003B0BDE8F08F6C
:102CD000100E00202DE9F04715461C4612782F7A79
:102CE00095F809C088B00023E360C4E90033A773F6
:102CF0009DF8408084F80DC00646A360E2730F463D
:102D0000002A3AD1FEF7E4FFD5E9042C3C4BC31866
:102D100041F1000E9A427CEB0E030AD3013E47F1CB
:102D2000FF37C4E900674FF47A73A36008B0BDE8C9
:102D3000F087263041F1000182427CEB0103EDD3A4
:102D4000501E04F10C036CF10001009304AA06ABC1
:102D5000FFF720F8049B686802330DF10F0205A904
:102D60001844FEF7EBFFDDE9053207999B1A23F0C3
:102D70007F43C4E90021A360D8E7224804F10C0294
:102D800006A9FEF7DBFF204B1B78202B24D01F4920
:102D90008B69D1E90721083342F1000A13EB0109DD
:102DA0004AF1000A6B68207B1844023005AA04F13E
:102DB0000801C4E9009AFEF7C1FF2869CDF8008038
:102DC00032463B462146FFF729FF0028AED1C4E931
:102DD000006708B0BDE8F087637B16F1080947F18A
:102DE000000A012BDED0FEF753FD0028DAD1FEF7F2
:102DF00055FD10EB090399464AF1000AD2E700BFDE
:102E00000040420FFF7F841E101100201811002087
:102E10002DE9F04700EB4003344DDFF8D480EC5C43
:102E200006464700FFF766F94FF0200C4FEA461EB2
:102E300004EB440108EBC1010EEB0403D1F808A038
:102E40000A69AAEB000929F07F49B9F5000F05EBE3
:102E500043030DD812EB0A02121A22F07F42B2F598
:102E6000000F05D8BCF1200F0AD12046BDE8F0873D
:102E70005B7F202BA4461C46DAD1BCF1200FF4D096
:102E80000CEB4613BA1905EB430315F802805B7F80
:102E9000AB54710144464FF0040E0B1905EB43038C
:102EA00022469445204683F81CE05C7FF5D1BB198F
:102EB0002B440A4493F802E0BEF1200F5FFA8EFC27
:102EC00018BF8C443E4418BF05EB4C0C05EB420286
:102ED000354408BF83F801804FF0200318BF8CF8F9
:102EE0001D80A87053772046BDE8F0877011002040
:102EF000100E00202DE9F04101EB41034A4DEE5C3C
:102F0000202E82B00C4680464FEA410740D1474B05
:102F10000BB1AFF3008001F0AFFEAB7C0191202B31
:102F20000AD0434BD3E906E210F1020C41F1000351
:102F3000E64572EB030330D3202E0AD042463346D7
:102F4000FFF7DAFA00283DD00220AE7402B0BDE8E7
:102F5000F081D5E90223B3F1FF3F08BFB2F1FF3F93
:102F60001FD12B7C43BB0420FFF76EF9FFF728FA33
:102F70000020FFF735FAA9694FF080422020A8749D
:102F8000002301200B60C2F8083502B0BDE8F081D3
:102F90000846FFF73DFF8642B9D0002002B0BDE8E9
:102FA000F081FEF76FFC4FF0FF334FF0FF32C5E9C1
:102FB00002232B7C002BD6D00520FFF745F90023F8
:102FC0002B74D0E73A1906EB441305EB430315F8CD
:102FD00002C05B7FAB5461016246042013468A182D
:102FE00005EB42029E421077527FF7D13A192A44EC
:102FF0003C449678F0B2202E18BF4018194418BFF0
:1030000005EB400005EB4101254418BF80F81DC0C9
:10301000AB704FF000004FF0200308BF82F801C0F2
:103020004B7702B0BDE8F081701100200000000075
:103030001811002038B5164A164D4FF0FF304FF0EA
:10304000FF310023C2E90201C5E90201202142F259
:103050002000A970136082F82830A9741C462880CB
:103060006B742B7405F11C0202F814300134202C0F
:10307000FAD1094800F0D6FF084B094A1C701070BD
:1030800001F090F8A861FEF7D9FF0123EB7438BD79
:103090001811002070110020B1280000101100202C
:1030A000481100202DE9F04F83B001F0E5FDA44F59
:1030B00006460C46FFF784F94FF0FF334FF0FF321E
:1030C000C7E9022397F82830BBB9BB693A6AF969A6
:1030D0009C48023341F100019B1802F5DF62A0FB1E
:1030E00002024FEA922241F100019B1841F10001D6
:1030F0009E4274EB010380F00E814FF0FF304FF0E1
:10310000FF31FFF70DF8904A92F800B0BBF1200FA5
:1031100000F011818D4D20231370AB746B7C002265
:103120003A6003EB43025FFA83F915F802805B0013
:10313000B8F1200F00930BD0DFF814A208EB48037E
:103140000AEBC3034FEA4802D97D012900F0B7809A
:10315000009BDFF804A203EB09062E444FEA49184E
:103160003478202C04D04846FFF752FE8442F7D131
:10317000BAF1000F01D0AFF3008001F07DFDAB7C10
:10318000202B09D0D7E9062310F1020E41F1000CE3
:10319000724573EB0C03E3D3202C19D02346012294
:1031A000FFF7AAF9002860D008EB0B0305EB4303F7
:1031B000AC741A7F022A36D0FF23AB71009B4B44BC
:1031C0001D446B78202B40F08C8003B0BDE8F08F5D
:1031D000D5E90223B3F1FF3F08BFB2F1FF3F07D0AB
:1031E000FEF750FB4FF0FF324FF0FF33C5E90223EB
:1031F0002B7C002B5DD10420FFF726F8FFF7E0F8C9
:103200000020FFF7EDF8A9694FF08042002320204D
:10321000A8740B60C2F8083508EB0B0305EB4303F9
:103220001A7F022AC8D14A4A0BEB4B0102EBC102BA
:10323000527D022A6CD0009A4A442A44062119770A
:1032400091782029CBB260D0434405EB430383F847
:103250001DB0009B4B442B44D84405EB480883F831
:1032600002B0202388F81D30A6E708EB040305EB25
:10327000430330785B7F3370024604211346424497
:1032800005EB42029C421177527FF7D1B178B370BF
:10329000CAB220291CBF424405EB4202434405EB5D
:1032A000430318BF50774FF0200208BF70705A7761
:1032B00056E70520FEF7C8FF00232B749BE75B7DD4
:1032C000012B15D1033644F1000402EB08030AEB8D
:1032D000C303D3E90202B042A24128BFC3E902649A
:1032E00036E71C4B187803B0BDE8F04F00F0B6BECF
:1032F0000192FEF7CDFA019A0028E3D1FEF7CEFA4B
:103300008619019A44F10004DFE782F801B0A0E7D2
:1033100001221A7750E70C4B0D4A1B78182101FB4C
:1033200003F3D01807214068D358984740F2A621EC
:10333000702000F0F3FD40F2B121702000F0EEFDAE
:10334000181100209300DC92101100207011002051
:10335000100E0020481100200000000038B505467E
:103360000C46FEF7ADFA002822DB14494B7C01F134
:103370001C0C5FFA83FE0CEB831C002302E001337C
:10338000202B13D01CF81320D8B2002AF7D10C4AF6
:1033900003EB4E1E03EB430301EB4E0142F83350A7
:1033A00002EBC30301220A775C6038BD184638BDC2
:1033B00040F20731702000F0B1FD00BF7011002015
:1033C000100E00201F2808D80A494B7C00EB43133D
:1033D00001EB43031A7F012A01D0002070474B7C88
:1033E00000EB431301EB43034FF0000C104683F84E
:1033F0001CC0704770110020014BD3E904017047D5
:10340000181100202DE9F04FAC4A53688FB0C3F378
:10341000080383460491002B40F062810823039344
:10342000049B1B78012B00F23D82A54E26B10021A2
:1034300040F23D50AFF300800023A24C05934FF0C3
:10344000010926B1002140F24A50AFF30080B9F1E2
:10345000000F04D19C4B0BB1AFF3008062B6657CCA
:10346000EDB24FF00003A371039B002B40F0988056
:10347000A84626B1002140F25E50AFF3008001F073
:10348000FBFB049A00950AAB8246FFF723FC26B1AA
:10349000002140F26650AFF300800BEB481904EBBB
:1034A00049094FEA481799F81C30013B012B75D8A0
:1034B0000A992AF07F4AA1EB0A0222F07F4323F007
:1034C0000103002B40F0BD8008EB4802224407EBCB
:1034D0000B03907804EB43030421202819774FEA6B
:1034E0004803C1B200F09681394404EB410181F8F0
:1034F0001DB0434423445F4404EB470783F802B004
:1035000020237B7700230593012726B1002140F279
:103510006B50AFF300806D4B0BB1AFF30080EFF356
:103520001088C14672B6A379002B8AD1684B0BEB89
:103530004B0C03EBCC0C0AAB0FCB0CF1080C8CE85A
:103540000F008FB1039B002B00F0EA80059B23B195
:10355000604B1B78202B00F06081637CDB4303F021
:1035600001036374FF23A371B8F1000F04D1564B1C
:103570000BB1AFF3008062B626B1002140F2A25039
:10358000AFF30080002F4AD126B1002140F2AE50A7
:10359000AFF3008038460FB0BDE8F08F0027B4E7E6
:1035A0004D4B05F1010A0AF0010A03EB851E03EBFE
:1035B0008A1CBEE80F00ACE80F00BEE80F00ACE8C4
:1035C0000F00BEE80F00ACE80F009EE80F002DB220
:1035D0008CE80F00D0460FFA8AF726B1002140F29E
:1035E000DB30AFF3008005EB450507EB47076319B8
:1035F000625B9B78E2532744BB7056B1002140F2D6
:10360000DF30AFF3008026B1002140F25450AFF319
:103610000080A379002B7FF414AF554629E7637C23
:1036200003EB43031C446378202BADD026B100216B
:1036300040F2A950AFF30080284B187800F00EFD3F
:10364000A2E722F07F42B2F5000F3FF63DAF0C9BA0
:103650005B18A3EB0A0323F07F43B3F5000F3FF69B
:1036600033AF0DF127030DF1260229460AA8FFF713
:1036700047FA059000285AD108EB48022244042357
:10368000907889F81C304FEA48032028C1B243449F
:1036900018BFC91923445F4404EB470718BF04EB64
:1036A000410183F802B04FF0200314BF81F81DB030
:1036B00082F801B07B77012727E700BF00ED00E02B
:1036C0000000000070110020000000000000000059
:1036D000100E0020101100208C1100204811002035
:1036E000103B59B20029C0F28D8001F1604101F513
:1036F000614191F800335B090393002B7FF490AE96
:10370000704B1B78202B00F0D280049B1B78039316
:10371000002B3FF48AAE40F23651702000F0FEFBE1
:10372000FF23A371B8F1000F7FF426AF1FE79DF8C8
:1037300026C09DF827E0F44518D1BCF1200F00F019
:103740009E8007EB0C0304EB43035B7F89F81D307D
:10375000BC4404EB4C0C00228CF81DB05F4404EB1D
:103760004703059F059203221A77CEE6BEF1200F8C
:1037700000F0A28007EB0E0304EB4303BCF1200F23
:10378000597F00F0878007EB0C0204EB42024FEAFE
:103790004803507F069051774FF0050A3A1804EB22
:1037A000420201468E45814682F81CA0507FF5D129
:1037B00003EB08022244079192F802A0BAF1200F0D
:1037C0005FFA8AFE63D0BE4404EB4E0E069A8EF872
:1037D0001D2003EB08022244079982F80290394425
:1037E00007EB0B024FF0200E04EB410104EB420209
:1037F000F44581F81DE05077AAD14344059A04F8B6
:1038000003B0ABE703F00F03043B13441B7E5B09DB
:10381000039372E782F801B06BE629460220FFF7B6
:1038200069FB00287FF499AE637C03EB43002044DE
:103830000BEB431204EB420285780421DFB21177CF
:103840005A015B00202DE9B23B4418BF891823447C
:103850005A4418BF04EB410104EB420283F802B062
:103860004FF0200318BF81F81DB0059F08BF80F8F6
:1038700001B05377B8F1000F7FF47EAE77E608EB26
:103880004803E35C89F81D304FEA4803B5E7069921
:1038900051709EE708EB48024FEA4803A05C06908F
:1038A000A15479E740F23A51702000F037FB40F222
:1038B0003351702000F032FB40F2CB11702000F049
:1038C0002DFB00BF1011002070B586B007280DD861
:1038D000DFE800F0310C0C0C0C1D040E604B4FF0B7
:1038E00080419A690123C1F80835136006B070BDA4
:1038F0005C4B5D4A1B7803EB430302EBC30052F8B9
:1039000033304068042106B0BDE870401847544C7D
:10391000237C002B49D0D4E90223B3F1FF3F08BF39
:10392000B2F1FF3F00F085800120FEF759FD002332
:10393000237406B070BD4A4CD4E90223B3F1FF3FB3
:1039400008BFB2F1FF3F56D0464E0120FEF748FDBA
:103950003378202B56D0454D95F82520012A3BD0B1
:10396000FDF796FF0346002835D194F89C200132DC
:10397000D2B2312A84F89C206CD84FF47A72307815
:103980006946CDE90032CDE90233CDE90433FFF7D2
:1039900039FD002859D095F82840012385F82830B2
:1039A000FFF780FB85F82840A0E72E4B2E4A1B78B6
:1039B0002E4903EB43034FF0FF344FF0FF35C1E9CD
:1039C000024502EBC30152F833304868052106B0C6
:1039D000BDE8704018473378234A03EB430302EBFA
:1039E000C30052F833304068002184F89C1006B0C0
:1039F000BDE870401847FDF73FFF01F03DF9C4E90D
:103A00000201A1E7637C03EB4301DAB2635C202B84
:103A100016D003EB421204EB4202507F6054FF21A8
:103A2000A171124D337002211177002285F82820F0
:103A300092E7FDF721FF01F01FF9C4E9020173E7E6
:103A400040F24221702000F069FA4FF4C561702005
:103A500000F064FA40F22461702000F05FFA00BFC9
:103A60007011002010110020100E002018110020ED
:103A700010B51B4B1B78202B86B026D0194CD4E9EF
:103A80000223B3F1FF3F08BFB2F1FF3F22D1D4E9D7
:103A900004310DF10B02C01841F1000104AB00929A
:103AA00003AAFEF777F99DF80B20DDE904130F2A2E
:103AB00094BF00220122521843F100030520C4E9FB
:103AC0000223FEF71BFC06B010BD40F2BF71702050
:103AD00000F024FA4FF4F861702000F01FFA00BFE4
:103AE000101100201811002038B5254B93F800E084
:103AF000BEF1200F3FD0234D6B7C95F811C003EB36
:103B000043035FFA8CFCEB5C202B25D01E4C4FEA64
:103B10004C1C05E0634405EB43035B7F202B1BD06B
:103B200003EB430204EBC202917D8142F2D80EEB1B
:103B30004E0E04EBCE04D4E90213206940189168BC
:103B4000D26843F10003C41C43F10003A14272EBAD
:103B5000030304D2002038BD4FF0FF3038BD0B4BBB
:103B6000081A03381C68FEF7A5F804F132038342F3
:103B7000F0D8001B38BD40F2F471702000F0CEF98F
:103B80001011002070110020100E002018110020CC
:103B90002DE9F04F8C4B1D7887B0202D019000F05F
:103BA0000D81DFF83092DFF8308299F8113003EBA5
:103BB00043030646D8F8000019F80340D8F8183037
:103BC00003930DF11302D8F8203002938B46304452
:103BD00005A9FEF7B3F87D4BA6F132029A426AD8E6
:103BE000DFF8F8A1059BD8F81C6005EB45050AEB4A
:103BF000C505A8681B182869D8F818501818401B64
:103C000020F07F43B3F5000F55D899F81120C8F87C
:103C10002000202C88F826B0D2B200F0C2805201D9
:103C2000DC462021934604EB440240190AEBC20211
:103C300046F1000ED2E90263864273EB0E034FEAAF
:103C4000440746D3537D012B03D098F82530012B30
:103C500035D005200091FEF7F7FA009999F8110088
:103C60004FF0FF324FF0FF332029C8E90223C0B2E2
:103C700040F0958000EB4000202419F80030524AB3
:103C800099F81110127802EB411209EB42025377B6
:103C9000D8F80030019A1344C8F80030FF2389F89F
:103CA0000630202C35D04A4B187800F0D7F9002088
:103CB00007B0BDE8F08F012007B0BDE8F08F00919C
:103CC000FDF7ECFD751B013085420099C1DA98F8CB
:103CD00026C027440AEBC707BB7D63450DD90BEB14
:103CE000040309EB43035B7F202B16D02146D8E960
:103CF0000656D8F820001C4695E7DDE90231D8F8D1
:103D000018205B189B1A0220C8F8203007B0BDE8C5
:103D1000F08F002007B0BDE8F08F0520FEF794FA81
:103D20004FF0FF324FF0FF3399F81100C8E902233A
:103D3000C0B204EB401309EB430346005A7F00EB8B
:103D40004003410119F803A009F803204FF0050CC6
:103D50005346CF1809EB47071A4694421D4687F889
:103D60001CC07B7FF5D137184F440A4497F802E016
:103D7000BEF1200F5FFA8EFC18BF8C44304418BF90
:103D800009EB4C0C09EB420248444FF0200114BFF0
:103D90008CF81DA087F801A0857051776FE70C465D
:103DA000C7E70520FEF750FA99F811004FF0FF32EF
:103DB0004FF0FF33C8E90223C0B25BE740F61D01B4
:103DC000702000F0ABF800BF10110020CE3F420F72
:103DD000481100207011002018110020100E002042
:103DE000BFF34F8F0549064BCA6802F4E0621343E4
:103DF000CB60BFF34F8F00BFFDE700BF00ED00E0D9
:103E00000400FA05094B01225A604FF0FF32C3F853
:103E10000823074B4FF48042C3F88020BFF34F8F35
:103E2000BFF36F8FC3F88021704700BF00E00040F0
:103E300000E100E0094B01225A604FF0FF32C3F865
:103E40000823074B4FF48052C3F88020BFF34F8FF5
:103E5000BFF36F8FC3F88021704700BF00C00040E0
:103E600000E100E0084B0022C3F8FC2F0122C3F858
:103E7000FC2F064B0222C3F88020BFF34F8FBFF305
:103E80006F8FC3F8802170470010004000E100E010
:103E9000F8B51B4E337805460C46174663BB00F059
:103EA00021F9FDF7CDF917487760002D18BF284696
:103EB0003472FFF7D7FFFFF7BDFFFFF7A3FFFDF752
:103EC00005FD0546B0B9FFF7B5F8FDF7F1FC00F0C8
:103ED00024FE002C0CDB04F01F026409A40004F192
:103EE000604404F5614401239340C4F880312360A9
:103EF000012333702846F8BD4FF0FF35FAE700BFC5
:103F000010120020AAA9050008B572B6024B5B6822
:103F100003B19847FFF764FF101200201FB572B677
:103F2000134B5D688DB9FFF75BFFB2FBF6F2DCB2B5
:103F30000133002AF9D104F110036B4403F80C2C6F
:103F40000A2234B901A8A847EDE7024600230A2651
:103F5000EDE7631E04AEDCB256FA83F3B0FBF2F673
:103F600002FB1600303003F80C0C3046E9E700BFC6
:103F700010120020074B93F90830002B09DB5A0977
:103F8000012103F01F0301FA03F34032024941F813
:103F9000223070471012002000E100E0014B187839
:103FA000704700BF101200201B4B4FF4805270B5B9
:103FB000C3F88020BFF34F8FBFF36F8F174D184C9E
:103FC0000021C5F80011C3F880212669236943F058
:103FD000100323610123C5F8043306F010062B609B
:103FE000D5F80031A3B11EB9236923F01003236172
:103FF0000A4B0122D3F808055A60C3F808230022AF
:10400000C3F80021044B4FF48052C3F8802170BDE7
:1040100000F05EFEE4E700BF00E100E000C0004009
:1040200000ED00E038B50C4902460520431ED8B229
:10403000FF2803D148216920FFF770FF01EBC0037F
:104040001D7905F0FF04002DF0D141F83020012248
:104050005C719C711A7138BD20120020042808B5CB
:1040600003D958216920FFF759FF094B03EBC00022
:104070000379012B01D05921F4E743798279013387
:10408000DBB29A4218BF4371BDE80840FFF772BF28
:104090002012002070B5124C06250026013D15F0B7
:1040A000FF0500D170BD94F8281004EBC1031A7904
:1040B000012A09D158799A79904205D05A79D2B219
:1040C0009A7154F83130984794F828300133DBB2B4
:1040D000042B94BF84F8283084F82860DEE700BF02
:1040E000201200204FF08052034BD2F8301119609B
:1040F000D2F834215A6070474C120020034B1868E4
:10410000A0F10F0358425841704700BF4C120020E5
:10411000034B1868A0F10A0358425841704700BF8A
:104120004C120020034B1868A0F10E03584258416E
:10413000704700BF4C120020034B1868A0F1100319
:1041400058425841704700BF4C120020044B186879
:10415000062803D0431C584258417047012070473D
:104160004C120020034B1868A0F10D03584258412F
:10417000704700BF4C120020034B1868A0F10803E1
:1041800058425841704700BF4C12002008B5FFF755
:10419000BFFF20B1024B5868B0FA80F0400908BD5B
:1041A0004C12002008B5FFF7A9FF70B9FFF7B0FF68
:1041B00058B9FFF7B7FF40B9FFF7C8FF044A054BEE
:1041C000002808BF1346184608BD024BFBE700BF96
:1041D00000E701400C05004008B5FFF7B7FF08B342
:1041E000EFF3108072B6104A1369116941F01001A3
:1041F0001161A2F5406203F01003D2F80011D2F869
:1042000004210A4300D040BF20BF00BF00BF00BF51
:1042100000BF23B9044A136923F01003136100B9E6
:1042200062B608BD20BFFCE700ED00E02DE9F041DB
:1042300084075FFA81FE5FD0002A59D0034601E06F
:10424000002A55D003F801EB990702F1FF32F7D1AC
:104250004EEA0E24032A44EA04443ED9151FAE0850
:10426000172D06F10106C3F3800147D998460029AE
:1042700040D048F8044B771A03EB810C79080CEB1B
:10428000C101CCE900440CF1080C6145F9D127F0DB
:10429000010C08EB8C016745CCEB8C7805EB8805AD
:1042A00017D02F1F032F0C6013D9A5F10807032F78
:1042B0004C600ED9A5F10C07032F8C6009D9A5F12C
:1042C0001007032FCC6004D9143D032D0C6188BF67
:1042D0004C6102F0030203EB86034AB1013A83F812
:1042E00000E005D0012A83F801E018BF83F802E05E
:1042F000BDE8F0811546BEE70346A9E71946154615
:10430000CFE700BF014B1B681B681847440400201F
:10431000014B1B685B68184744040020014B1B6875
:104320009B68184744040020014B1B681B69184711
:104330004404002038B50420204CFFF7D5FB256845
:10434000854228BF054604212846FFF721FC30B1ED
:104350000138C0B2012820D940F2431108E0236897
:10436000E068AB420DD1FFF783FB20B940F2231187
:104370006B20FFF7D3FDE268236822611344E360FA
:1043800038BD05446089E5600123281A2375FFF7CD
:104390006FFB68B940F22D11EAE70123E06823754D
:1043A0006389C01AFFF764FB10B940F23B11DFE7E5
:1043B0006289E3689B1A2361E2E700BF581200207C
:1043C00008B50C4B1A7802F0FF0312B15A1E1A42BC
:1043D00003D0DF216B20FFF7A1FD19B1034207D104
:1043E000E421F7E723EA00039B0601D1E821F1E786
:1043F00008BD00BF480400200C4B10B501221A76FE
:104400001A68DA615A689A62094A93F83000022100
:104410004FF4827411701C8403F11801FEF7F2FF4F
:1044200018B921466B20FFF779FD10BD5812002006
:104430004804002070B5EFF3108572B6264C94F84E
:1044400031600023012E84F8313006D0022E1DD0B9
:10445000002E3BD185F3108870BD85F3108894F849
:10446000323003F0FF0123B14FF4A8716B20FFF746
:1044700055FD1420FFF7A4FF184B84F832601B7819
:10448000012BE9D1BDE87040FFF7B6BF94F83220A8
:1044900012B940F26111E9E7104984F832300B7823
:1044A000023BDBB21E2B0ED8012202FA03F30C4AA8
:1044B0001342CFD144F20402134204D020230B70E4
:1044C000FEF7F0FDC6E740F27D11CFE785F31088D7
:1044D00040F2A311CAE700BF581200204804002090
:1044E0004100004070B5144C94F8335025B140F2AF
:1044F00086216B20FFF712FD104B84F83250012605
:104500001E700F4B0F484FF4C852C4E900230E4BE6
:10451000A360FFF787FD294684F834000B48FEF7B7
:104520001DFF202884F8300002D140F29521E0E7F9
:1045300084F8336070BD00BF58120020480400208A
:10454000FF3F420F354400000500B700BD460000A4
:1045500008B5104B93F8332022B940F2F5216B20B7
:10456000FFF7DCFCEFF3108172B693F8312022B133
:10457000012A0DD040F20531F1E7022283F8312003
:1045800001B962B693F83400BDE80840FFF766BD94
:104590000022F3E7581200200B4B93F8333010B58C
:1045A00023B94FF445716B20FFF7B8FCEFF310848B
:1045B00072B6064B1A78102A03D108221A70FEF739
:1045C00071FD04B962B610BD5812002048040020E5
:1045D00070B5164B1B78042B25D1154E337D1BB9B6
:1045E00073893068C01A70BD00F044FB10F11E04DE
:1045F00041F10005FEF700FF33691B1841F100018E
:104600009C4275EB01004FF000020CD2181B4FF0DA
:10461000FF3361EB0501834272EB0103E3D2A62174
:104620006B20FFF77BFC0020DDE700BF4804002083
:104630005812002038B5144C94F8333023B940F2A6
:10464000CA216B20FFF76AFCEFF3108572B694F86D
:10465000313023B1022B0DD040F2DD21F1E70123EF
:1046600084F8313005B962B694F83400BDE83840BA
:10467000FFF7F4BC054B1B780022042B84F8312093
:10468000F0D11EF07BFAEDE758120020480400201C
:1046900008B5094B19781029CAB207D0202A05D0CD
:1046A000042A04D110221A701EF078FA08BD4FF4C3
:1046B000E1716B20FFF732FC4804002070B50C4616
:1046C000FDF718FD062C48D8DFE804F00451512806
:1046D00023645D0001210220FFF772FE304B314A56
:1046E00093F8321079B1042111701A68DA6000224F
:1046F0001A7593F83130022B01D01EF03FFABDE855
:104700007040FFF717BE20231370BDE87040FEF71E
:10471000C9BC40F20E216B20FFF700FC204E96F83A
:104720003230D3B11F4B1B78042B17D100F0A2FA03
:1047300005460C46FEF760FE327D012A0BD1326938
:10474000121841F10003954274EB030303D3BDE853
:104750007040FFF79DBF0EF075F870BD124B02223E
:10476000C3F88020BFF34F8FBFF36F8FF5E70121B0
:104770000220FFF725FE0A4B93F8323033B1BDE833
:104780007040FFF739BE01212820F2E7054B0122D6
:104790001A70E2E7024B1B7D012BB0D1D7E700BFB7
:1047A000581200204804002000E100E07BB972B9F3
:1047B0000029BEBF00204FF0004106E008BF0028DE
:1047C0001CBF6FF000414FF0FF3000F057B8ADF163
:1047D000080C6DE904CE002909DB002B1ADB00F080
:1047E00094FADDF804E0DDE9022304B070474042AA
:1047F00061EB4101002B1BDB00F087FADDF804E0E0
:10480000DDE9022304B0404261EB4101524263EB17
:1048100043037047524263EB430300F076FADDF83E
:1048200004E0DDE9022304B0404261EB410170473E
:10483000524263EB430300F068FADDF804E0DDE97F
:10484000022304B0524263EB4303704753B94AB9A1
:10485000002908BF00281CBF4FF0FF314FF0FF3088
:1048600000F00CB8ADF1080C6DE904CE00F04DFA83
:10487000DDF804E0DDE9022304B07047704700BFB3
:1048800008B5FFF72FFCBDE80840FCF7D9BC70B5B0
:10489000841A04F307040E4660B259B21546FCF7B9
:1048A000BFFC002330702844737040B270BD37B530
:1048B000A0F10B04E0B20F28154603D94F21642064
:1048C000FFF72CFB0DF103030A4601460420FCF719
:1048D00063FC034608B15821F1E704EB840404F6B5
:1048E00065149DF90300A2B201A9FCF745FC9DF8EF
:1048F00004302B709DF805306B7003B030BD002381
:10490000036070477047002070474FF0FF307047DA
:104910004FF0FF30704770474FF0FF307047002076
:104920007047002070470023037070470022FFF794
:10493000AEBF002070474FF0FF3070474FF0FF30A0
:1049400070474FF0FF3070477047C0B270474FF06C
:10495000804301221A6070474FF08043D3F8080467
:1049600000F0010070474FF08043D3F8140400F0CA
:10497000010070474FF08043D3F81C0400F003009F
:1049800070474FF08042D2F81834D2F8182413F44C
:10499000803305D002F003031B1A58425841704778
:1049A0001846704708B5FFF7F1FB28B14FF0804378
:1049B0000222C3F8342C08BDFFF7C8FB0028F5D14C
:1049C000FFF7DAFB0028F1D1F5E7FCF78BBC38B52F
:1049D000054691F827000C46FEF7F4FC18B9E721CC
:1049E0006A20FFF79BFA0023A38484F8263009216C
:1049F000236A2846984718B103780BB1EB21EFE7FB
:104A000038BD426808B5034611441A785960012A36
:104A1000A1F1500006D1FFF72BF840B9CB216A2055
:104A2000FFF77CFAFFF724F808B9D021F7E708BDB3
:104A3000F8B504460E4619B9012384F829303BE045
:104A40000D78032DF8D8DFE805F039021215486813
:104A5000C72802D800252846F8BD0421FFF798F89A
:104A60000028F7D171682046FFF7CBFFF3E7FCF78A
:104A7000A1FFF0E790F82470F7B94D682846FCF7DD
:104A80006DFF0028D8D02B78D3B9012222702B7962
:104A9000003B18BF012363726B79002B0CBF02230C
:104AA00004232372AB686F336360EB6823610323D5
:104AB00084F8263084F82520FCF77CFF0225CAE71D
:104AC00094F82630052B04D040F28F116A20FFF7AE
:104AD00025FA27702B7994F82700003B18BF012393
:104AE00063726B79002B0CBF022304232372EB68E3
:104AF000A9686F336360D4E906325B1842EBE17258
:104B0000C4E90432042384F826302146FEF77AFCF7
:104B10000028D1D140F29111D8E770B5FDF7A0F887
:104B2000002405462646E0B2854200D870BDFDF758
:104B30009DF80134868480F82660F4E7F8B50446D1
:104B40000D46FDF78DF800270646F8B2864204D8D8
:104B5000082D0CD96FF0150008E0FDF787F890F8E4
:104B600026300137002BF0D04FF0FF30F8BD2CB1CC
:104B700029462046BDE8F840FDF786B82146204684
:104B8000F8E738B50546FDF771F8014688B190F8A9
:104B900024408CB990F8263073B1013B012B04D826
:104BA0002846FFF714FF204638BD012380F8243043
:104BB000F9E76FF00100F7E76FF02200F4E770B556
:104BC0000D46FDF753F80446002848D090F82660BB
:104BD000731E012B49D8002D44D02846FCF7BEFE99
:104BE00000283FD02B78FBB9012323702B79003BA1
:104BF00018BF012363726B79002B0CBF02230423BF
:104C00002372AB686F336360EB682361032394F80E
:104C1000270084F826302146FEF7F4FB40BB4FF412
:104C20002F716A20FFF77AF9022E1ED1002323701C
:104C30002B79003B18BF012363726B79002B18BFDF
:104C400004262672EB68A9686F336360D4E90632E4
:104C50005B1842EBE172C4E904320423D7E76FF03A
:104C6000010070BD6FF01500FBE76FF02200F8E760
:104C70000020F6E7FDF744BA07B56846FDF734F9BA
:104C8000DDE900024FF080730021E2FB030103B075
:104C90005DF804FB0023037018467047EFF31082A1
:104CA00072B603780121DBB2017002B962B6012B42
:104CB0000CBF6FF0220000207047EFF3108372B634
:104CC0000022027003B962B600207047FFF7E2B914
:104CD000FFF782BAFFF780BA00280CBF6FF015000B
:104CE00000207047002070470723037000207047A2
:104CF000002070470020704710B50446FFF768FC9D
:104D0000A04294BF0020012010BD2DE9F047864647
:104D10008C460846089E154674461946002B40F0FE
:104D2000C2808542B2FA82F245D94AB1C2F120036B
:104D300000FA02FC2EFA03F3954043EA0C0C94406F
:104D40004FEA154EA8B2BCFBFEF8230C0EFB18CCA4
:104D500008FB00F943EA0C43994528D9EB1808F100
:104D6000FF3704D2994502D9A8F102072B44A3EBDF
:104D70000903A4B2B3FBFEFC0EFB1C330CFB00F0DA
:104D800044EA0344A04214D92C190CF1FF3304D295
:104D9000A04202D9ACF102032C44241A43EA074092
:104DA0001EB1D440002334607360BDE8F0874746ED
:104DB000DDE76346F1E792BB431B01214FEA154E45
:104DC000AFB2B3FBFEFC200C0EFB1C330CFB07F850
:104DD00040EA0343984562D9EB180CF1FF3004D246
:104DE000984502D9ACF102002B44A3EB0803A4B20E
:104DF000B3FBFEFC0EFB1C330CFB07F744EA034439
:104E0000A7424ED92C190CF1FF3304D2A74202D984
:104E1000ACF102032C44E41B43EA0040C0E7C2F1BA
:104E2000200320FA03F1954090402EFA03F3034348
:104E30004FEA154EAFB2B1FBFEFC0EFB1C10190C75
:104E40000CFB07F841EA0041884504FA02F422D934
:104E500069180CF1FF3004D2884502D9ACF1020088
:104E60002944A1EB08019BB2B1FBFEFC0EFB1C1117
:104E70000CFB07F743EA01439F420ED9EB180CF1F4
:104E8000FF3104D29F4202D9ACF102012B44DB1B5B
:104E900041EA004192E76046E3E76146F7E7604692
:104EA000A3E76346B7E7834206D916B9002108464F
:104EB0007BE7C6E900E0F9E7B3FA83F78FB98342ED
:104EC00001D3724508D8BEEB020460EB0303012056
:104ED0009C461EB9002168E73846FAE7C6E9004C4F
:104EE000F8E7C7F1200CBB4022FA0CF41C432EFA61
:104EF0000CF120FA0CF3B84001434FEA14490EFAC2
:104F000007F5B3FBF9F81FFA84FE09FB18300B0C08
:104F100008FB0EFA43EA00439A4502FA07F240D929
:104F2000E31808F1FF3004D29A4502D9A8F1020033
:104F30002344A3EB0A0389B2B3FBF9F809FB183346
:104F400008FB0EFE41EA03418E452CD9611808F199
:104F5000FF3304D28E4502D9A8F10203214443EA6B
:104F60000040A0FB0298A1EB0E014145CE4643460E
:104F700002D306D14D4504D2B9EB020E68EB04030F
:104F80000138002EA6D0B5EB0E0261EB030101FA49
:104F90000CFC22FA07F34CEA0303F940C6E900319E
:104FA00098E74046C5E74346D9E700000000000007
:104FB0002DE9F04F9FB08246039116461C4600250E
:104FC000307810B9284600F0A6BD252809D00399ED
:104FD000D0470028C0F29F85731C01350593059EBC
:104FE000EEE71822002110A84BF01AFC7378252B4D
:104FF0007ED00023701C98469E469C461F46014664
:1050000010F8012B2B2A00F0A68000F29D80202AA8
:1050100000F0A480232A00F0A4802BB19DF8483032
:1050200043F040038DF84830B8F1000F05D09DF8EB
:10503000483043F020038DF84830BEF1000F05D012
:105040009DF8483043F010038DF84830BCF1000F54
:1050500005D09DF8483043F008038DF848302FB153
:105060009DF8483043F004038DF848309DF84830EF
:1050700003F04400442803D16FF386138DF84830C1
:105080009DF848302A2A43F080038DF8483040F0DC
:1050900084809DF8492042F001024B1C8DF8492084
:1050A0001A782E2A9DF849200CBF0121002161F3B6
:1050B00041028DF849207CD15A782A2A72D00133D6
:1050C00000224FF00A0C194611F8010BA0F130072D
:1050D000092F40F2B3809DF848101492C1F34000AC
:1050E00040EAD2700A4660F341028DF8482060E041
:1050F0008DF84B30B31C05939DF849309DF84A203C
:10510000DF0702F0070040F1548154F8041B0491BA
:10511000002908DA9DF8481041F004018DF8481084
:10512000049949420491590740F14B8154F8047B9A
:10513000002F80F24A819DF849306FF341038DF8CA
:1051400049304FF0FF3740E12D2A0DD0302A7FF44F
:1051500064AF012353E74FF0010C50E74FF0010E0D
:105160004DE74FF001084AE7012748E70EFB0272BE
:10517000303A0346184610F8017BA7F1300CBCF119
:10518000090FF3D999428BD09DF848101392D20F92
:1051900062F341018DF8481082E70B4600224FF080
:1051A0000A0EE7E79DF8492042F004028DF84920F5
:1051B00002331A786C2A61D045D8682A4BD06A2A03
:1051C00065D04C2A6BD013F8012B0593782A8DF803
:1051D0004B2000F2AD806D2A6ED8692A00F2A880BB
:1051E000572A00F28880412A04D0A2F14503022BFD
:1051F00000F29E809DF84A3002F0DF020421A2F105
:10520000410961F30203D9F100029DF849108DF8BC
:105210004A3042EB090262F3C7110A068DF84910C1
:10522000CBB200F1C48003F07802182A40F0AE80BF
:105230006FF3C6038DF8493000239DE00CFB02029A
:10524000303A0B463FE7742A25D07A2ABBD19DF825
:10525000492006210CE05A78682A9DF8492006D199
:10526000012161F3C6028DF849200233ABE7022128
:1052700061F3C6028DF849200133A4E75A786C2AFD
:105280009DF8492001D10421EBE70321F0E79DF8C7
:1052900049200521ECE79DF849200721E8E7BDF802
:1052A000482022F4F04222F0020242F4804242F00E
:1052B0000202ADF84820DFE76E3AD3B201229A40ED
:1052C00040F282431A429DF8493038D112F0240F3F
:1052D00060D1D1072CD59DF84A2003F07803A3F1C3
:1052E0004008032161F30202D8F100038DF84A203F
:1052F00043EB080340E0A2F15801C9B2012000FAD3
:1053000001F111F4624F7FF475AF40F601031942C9
:105310009DF8493019D111F4043F09D09DF84A2075
:1053200060F3020203F07803402B8DF84A2083D10A
:105330009DF8483043F001038DF848307CE79DF834
:105340004A20022161F30202ECE79DF84A10022094
:1053500003F0780360F30201402B8DF84A1002BF7E
:105360009DF8481041F001018DF84810632A7FF440
:1053700063AF003B18BF01239DF84820C2F34001F2
:105380000B4363F341028DF84820B5E613F0380F64
:10539000CED151E79DF84A20032113F0780F61F335
:1053A00002028DF84A2014BF01230023E4E7012301
:1053B000E2E79DF948100029B4BF13994FF0FF317F
:1053C000B0E69F077FF5BDAE149F00230428CDE90A
:1053D00013339DF8493007D1990705D49DF9491039
:1053E0000029ACBF06270D2702F00702012AC3F3EC
:1053F000C30332D1DA1E042A04D8DFE802F02045C4
:10540000452020002268012B4FEAE271CDE91021EE
:105410001BD19DF94020D117CDE9102104349DF80E
:105420004820069292074FD0059B0399324650467A
:105430004AF09DFE0028C0F26E830544CFE554F883
:10544000042BD117CDE91021E9E7022BE6D111B2E7
:1054500042F3C032CDE91012E0E7022A24D1DA1E6D
:10546000042A04D8DFE802F0181010181800012BE5
:1054700054F8042B4FF0000114D0022BCDE9102179
:10548000CDD192B21092CAE7073424F00704F4E8B1
:105490000201CDE91001C2E754F8042B109200225A
:1054A0001192BCE7D2B2CDE7042A08D1073424F028
:1054B0000704D4E900010834CDE91001AFE7032A5D
:1054C000ADD154F8042BDDE79DF84B80B8F1780F8F
:1054D0003FF685ADB8F1570F5CD8B8F1250F00F055
:1054E000A380B8F1240F7FF67AADB8F1410F04D054
:1054F000A8F14503022B3FF672ADDDE91023002B26
:10550000C0F24B810699080700F14A81C1F30019E6
:105510004FEA4919C3F30A51C3F31303002940F0BA
:10552000428152EA030014BF4FF0010C4FF0000C0F
:10553000D80240EA5250D602CDE90C60B8F1460FCD
:1055400046EA010640EAE17008BF4FF066083043C2
:1055500000F0B181BCF1000F10D01B0343EA1253DD
:105560001603324618464FF0000C002880F24F8197
:10557000BCF1000F40F05281CDE90C630D9B43F06C
:105580000043A1F2FE3B0D930021DDE90C230E4602
:10559000052059E1A8F15802202A3FF620AD01A1CB
:1055A00051F822F06D570000DF4F0000DF4F000080
:1055B000DF4F0000DF4F0000DF4F0000DF4F000033
:1055C000DF4F0000DF4F0000FB540000DF4F000002
:1055D000195700002D570000FB540000FB54000039
:1055E000FB540000DF4F00002D570000DF4F00008C
:1055F000DF4F0000DF4F0000DF4F00007357000057
:105600006D570000BD560000DF4F0000DF4F000067
:1056100039560000DF4F00006D570000DF4F0000DB
:10562000DF4F00006D57000003994046D047002827
:10563000C0F271820135D2E4002F109E3ADB394668
:1056400030464BF0F9F83718002E3FF4C8AC4FF055
:1056500000099DF84A3013F01002069200F05082C3
:10566000023013F04003DDF84C80089318BF149B00
:10567000CDF81C80404418BFC018049B002B40F399
:105680005A829DF848201B1A04935307C2F3800BDB
:1056900000F15182500640F14182B9F1000F07D06C
:1056A00003994846D0470028C0F235820135D946D3
:1056B000302234E230464BF07AF8C4E710980028E4
:1056C00000F019820DF17503009312AA17AB0021A7
:1056D0004AF005FDBDF84A3003F0EF0343F4F04310
:1056E00043F010030646ADF84A304FF00009002F92
:1056F0000CDB9DF848200DF175039B1B6FF38612A0
:105700009F428DF8482001D9FB1A1393002E3FF4D5
:1057100066AC0DF1750767E0109B8DF85C304FF0BB
:1057200000090DF15D0717AE012092E7069B1E07E9
:1057300058BFC3F30019DDE9102354BF4FEA4919DC
:105740004FF02B09002B06DA524263EB4303CDE9FD
:1057500010234FF02D090DF175030093DDE91001C1
:1057600017AB12AA4AF0BBFC0646C0E74FF000098F
:10577000F1E7109A072B3FF632ACDFE803F00C0498
:10578000060C08080C0C157029E4158027E4EB17AB
:10579000C2E9005323E4156021E44FF02D09B9E676
:1057A0004FF02B09B6E640F2FF7081422CD1134333
:1057B000A8F141081FD1B8F11A0F35BF4923692359
:1057C0004E216E2134BF462266228DF85C309DF852
:1057D00048308DF85D106FF386138DF85E208DF8DC
:1057E00048300DF15F0717AEB81BB9F1000F3FF459
:1057F00030AF01302DE7B8F1190F8BBF6E234E2368
:10580000612141211A46E0E74FF0000C90E6921822
:1058100001F1FF3140414FF0010CA6E6CDE90C202B
:10582000ACE6520842EAC3725B08B3F1333F594613
:105830000BF1010BF5D200FB03FCA2FB002301F1ED
:10584000020B6344013E01211BF1020FE9DB09B1A8
:10585000CDE90C23BBF1000FDDE90C322EDCCBF1DE
:105860000401A1F120000BF11C0B02FA0BFB22FA40
:1058700000F0CA40CB40079208F0DF0243EA0B0376
:10588000472A43EA00037DD1F21C01DBB7422BDA41
:10589000A8F10208002F5FFA88F87CDD9DF8482007
:1058A000900607F1FF3776D4B7F1000B18BF4FF021
:1058B000010B7A1C27E04FF0000B65E6023342F142
:1058C00000020CA8CDE90C324AF0DAFBDDE90C321B
:1058D0000BF1FF3B0136DB185241002A0BF1FF3B75
:1058E000F9DACDE90C32B5E79DF848209106A7EB2F
:1058F00006074DD4B7F1000B18BF4FF0010BBA19D2
:105900004FF066084AD4102AA8BF10229FEDA67B4C
:105910008DED0E7B10200B90DDE90E01002A3FD1AA
:10592000079A1B1842EB0101B1F1805F47D2CDE924
:105930000C31069BB8F1660F03F0200240F0BB80EB
:10594000002E47DC30238DF85C30002A6ED1002F0A
:1059500040F3B7812E238DF85D3086B17342BB4290
:10596000A8BF3B469DF84A201393002BA7EB0307E3
:10597000D4BF0023012363F345128DF84A200DF1B3
:105980005E0340E0B8F1660F4FF0000BB7D090E730
:105990004FF0000BB3E74FF0000B8AE70022B5E7AA
:1059A000400840EAC1704908CDE90E010EA8CDE9D2
:1059B00008234AF065FB089A099B013AACE75B08AB
:1059C00043EAC1730CA84908CDE90C3101364AF00D
:1059D00057FBAEE717AB0B9900290BDD0BA90CA801
:1059E000CDE906324AF064FB069B079A03F8010BE7
:1059F000013EF0D11396AAB9002F40F360812E2109
:105A000003F8011B0026002F19DD0B9A002A16DD72
:105A10000BA90CA806934AF04BFB069B013F03F829
:105A2000010BF0E72E2203F8012BEBE72E238DF874
:105A30005D30002EA3D0002F90DC0DF15E03BBF192
:105A4000000F4CD114971F4608F0DF03452B21D1DE
:105A5000002EBABF76422D232B23632EC8BF6422AB
:105A60007B70C2BFB6FBF2F303F1300102FB136699
:105A70004FF00A0287F80080CABFB97002370337B7
:105A8000B6FBF2F303F1300102FB136330333970DC
:105A90007B700237139B002B2BDC149B002BD4BF95
:105AA000002301239DF84A2063F3861200238DF81A
:105AB0004A203B7097E60BA90CA806924AF0F8FA28
:105AC000069A8DF85C00302818BF06F1FF3612B92F
:105AD000002F40F3F6802E238DF85D304FE71F46F0
:105AE000013B17F8012C302AF9D02E2A08BF1F4697
:105AF000AAE70123D6E72E4F81467E1F0520A8E5A1
:105B00001A0748BF0130ACE5104609920399D04707
:105B10000028099A05DA1FB0BDE8F08F2022DDF8D1
:105B200010B0594600290BF1FF3BEDDC049BCDF88A
:105B300010B02B445D1AB9F1000F05D00399484607
:105B4000D0470028E7DB0135089B002B7CD09DF96E
:105B50004930002B2EDBB3469BF80000A0F1300348
:105B6000092BD9460BF1010B45D99DF84A30AE1BE4
:105B700099064E4407D44246002A08F1FF383FDC1C
:105B8000079B33449E1A99F800002E280AD10399E6
:105B9000D0470028BFDBB8F1000F06F1010635DC65
:105BA00009F101094D463CE000000000000000083A
:105BB00015B00500B14699F800007028C84609F1F3
:105BC000010913D1AE1B149D46443544AB1B002B79
:105BD00032DC03993B46424650464AF0C8FA002858
:105BE00099DB3044049E0546064463E00399D047A0
:105BF0000028E0DA8FE70399D0470028ACDA8AE77B
:105C000003993020D0470028B5DA84E70399302083
:105C1000D04708F1FF38BCE70399D0470028FFF6CA
:105C20007AAF2878A0F13003092BA84605F10105C9
:105C3000F2D9A6EB0906C6E703993020D047002821
:105C4000FFF669AF0136C1E79DF84A30DA0601D4A4
:105C50001B0706D503993020D0470028FFF65BAF1D
:105C60000135069B3BB103999DF84B00D0470028B6
:105C7000FFF651AF0135A84406E003993020D04724
:105C80000028FFF648AF0135A8EB0503002BF4DC34
:105C900003993B46324650464AF069FA0028FFF61F
:105CA0003AAF28449EE703992020D0470028FFF60A
:105CB00032AF0135731B002BF5DCFFF790B91646A8
:105CC000BDE60DF15D03BAE62DE9FF4715461A7CE6
:105CD00004697D2A0E468046D9681F4609D9B64810
:105CE00045214AF05FFB6FF07905284604B0BDE816
:105CF000F087931C84F8A03604F2A1604AF085FD79
:105D000004F5D16948461AF0FBFA022E32D00AD9BE
:105D1000F31E012B49D9A948324645214AF042FBDE
:105D20006FF08505E1E70023ADF80D3095F84A30B6
:105D3000C3F34002C3F380038DF8093001238DF8CB
:105D40000B309F4B8DF8082093F84C378DF80C30B2
:105D500006F0010602A904F5D4608DF80A6009F086
:105D600045FF002872D1974845214AF01BFB6FF090
:105D70000405BAE70023ADF80C3095F84A30C3F3B8
:105D80004002C3F380038DF8093001238DF80A30F7
:105D90008B4B8DF8082093F84C378DF80B3002A907
:105DA00004F5D46009F054FFDBE755B9864987480C
:105DB00040F265224AF0FBF9834840F265214AF03F
:105DC000EDF90023CDF80B3095F84A30C3F34002CB
:105DD000C3F380038DF80930331F5E425E418DF8B6
:105DE00008208DF80A604BF0E6FC01238DF80C309A
:105DF000734B8DF80B00D5E9086293F84C378DF89A
:105E00000D30734BB3424FF00203934104F5D46A53
:105E100017D3704BA6FB036103FB0211AB6AF018AA
:105E200041F100014FF47A720023FEF7BFFC50F0FD
:105E3000DFFD0B4602A90246009150464BF0DFFC05
:105E40008FE74FF0FF306FF00041EBE75C4BD3F88A
:105E500044371BB13A460021404698474FF0FF3285
:105E60004FF0FF3348461AF0EBF994F84A2795F8BB
:105E70004A3062F3410385F84A3094F84B27DBB28D
:105E800062F3820385F84A3094F82037052B3FF6F9
:105E90006EAF01A252F823F0B75E0000B15E0000C1
:105EA000A55F0000AB5F00006F5D0000A55F000014
:105EB0006FF00F0519E7D4F82C57002D3FF415AFFC
:105EC000D4F83037D4F83427134304F5E6670DD1FE
:105ED000414857214AF066FA6FF02205D4F82C07A2
:105EE0004BF0B9FC0023C4F82C37FEE62D7820686F
:105EF00000220023CDE9002300231A46294603F09F
:105F0000D3FE064630B9354845214AF04BFA6FF0CA
:105F10000B05E3E7D4F82C172A4601314AF0E9FFD4
:105F2000002809DA2E4845214AF03CFA6FF00B05AB
:105F300030464AF0EAFED1E794F8383786F8483020
:105F400094F93937AE339BB2FE2B28BFFE2386F877
:105F50004930D4F830077A684FF47A73A0FB030114
:105F600003FB0211002907DA1E491848EB224AF008
:105F70001EF91C48EB2122E70DA3D3E90023FEF70D
:105F800015FCC6E90801B26230464AF0F7FE206807
:105F9000314608F09BFC18B1134849214AF002FA37
:105FA0000025C5E76FF022059FE66FF068059CE6C7
:105FB00000CA9A3B000000008CC00500DFC005004D
:105FC00000130020FDC00500A7C00500E7AE0500D6
:105FD000037DC12500CA9A3B14C1050030C10500EC
:105FE0004FC1050071C10500A2C1050000000000FD
:105FF0002DE9F0472DED028B46A7D7E900679FED0D
:10600000408BDFF818A182B080464FF0FF334FF08D
:10601000FF3208F599601AF047F84368044643B91F
:1060200039493A48A9224AF0C2F8A92136484AF02B
:10603000B5F893F80090B9F1800F06D9324933488A
:10604000B6224AF0B4F8B621F0E700231A464946D2
:106050008DED008BD8F8000003F026FE61684A46FB
:10606000013105464AF045FF8146002836D1237CA0
:1060700085F8483094F91130AE339BB2FE2B28BF1F
:10608000FE2385F84930A27C95F84A3062F300037C
:1060900085F84A30A3684FF47A72A3FB0201E368E3
:1060A00002FB0311002907DA19491848EB224AF0CC
:1060B0007EF81748EB21BAE732463B46FEF776FBFF
:1060C000C5E90801AA62D8F8000029464AF00CFC8C
:1060D00000280CDA452150464AF064F90023606834
:1060E00063604BF0B8FB28464AF00FFE8DE760680E
:1060F000C4F804904BF0AFFB87E700BFAFF300801C
:10610000FFFFFFFFFFFFFFFFA7C00500E7AE050091
:1061100071C1050000CA9A3B00000000F6C10500ED
:106120002DE9F04F364ED6F804339A0787B00BD5D9
:10613000D6F8043143B1334A0023C6F80431D6F807
:1061400004311368013313602F4DDFF8C4A000241D
:10615000A9464FF48038D6F8042308FA04F717420A
:1061600028D0BFF35B8F0122A240284BD24353E8D3
:10617000001F01EA020043E8000CBCF1000FF6D159
:10618000BFF35B8F21FA04F2D30702D45AF824201C
:1061900082B120464BF0ACF907F0D4FAEFF3108B44
:1061A00072B609EB041CDCE902239042994109D242
:1061B0008BF310880134042C05F11005CBD107B006
:1061C000BDE8F08FCDE904239FED0B7BD5E90013EB
:1061D0000020286003938CED027B2046C6F84873AC
:1061E0004BF086F98BF310880029E3D0039B0093D2
:1061F000DDE904238847DDE7FFFFFFFFFFFFFFFF27
:1062000000100140E4410020401D0020D841002042
:1062100040110140000000002DE9F041137886B0E4
:106220000E46023B511C9BB24FF0000803910591B2
:10623000044600210020CDE90088CDF80880ADF8A3
:106240001030ADF8123003F0D1FC0546002840D0E4
:106250003F4F022CC7F800802ED0032C54D0012CC5
:1062600035D1DFF8F8803B4B3B4E03225A70D8F80B
:10627000003030685B689847D8F8003010F0100F95
:10628000D3F8188030686B462A460CBF214602219D
:10629000C047044628464AF038FD2E4B022214F12E
:1062A000230F5A703CD0002C47D1386835F0FAFCE7
:1062B000012007F0F7FF3EE0DFF8A080264CD8F879
:1062C000003020685B689847C30506D428464AF02A
:1062D0001CFD002006B0BDE8F0814FF47A70A6FBEB
:1062E000000119A3D3E90023FEF760FA194BAA6253
:1062F000C5E9080103215970D8F8003020689E696B
:106300002A466B46B047C4E7124B5C70134B0246FB
:106310001B6811489C6900686B464146A047B8E776
:10632000042035F0EBFC002007F0BCFF40F2F22027
:1063300000211BF06DF90120CCE7012035F0DEFCD7
:106340000020B6E7AFF3008000CA9A3B00000000CF
:1063500070420020110700204842002044420020E3
:1063600001460022014807F041BF00BF57FC04006E
:106370002DE9F0470121054652F0C7F890F800904A
:10638000284651F08AFF01218246002051F00EFF7D
:10639000064638B9254845214AF004F84FF6EA7018
:1063A000BDE8F087012151F0CAFF05218046304643
:1063B00052F0ABF80446284651F079FF01281C4FF3
:1063C00030D19AF80050012D13D0022D19D04DBBB9
:1063D0004BF0F5F825706570A570E5703D703B7861
:1063E00084F80490304688F800304FF01EFCFF20FF
:1063F000D6E74BF0D0F8002323706370A370E370EE
:10640000ECE73B7883F00102012B3A7007D04BF0A8
:10641000C2F8002323706370A370E370DFE74BF0D2
:10642000CEF8F6E74FF0FF33F4E700BFA0AE05006B
:106430009EAD00200146034883685B6C0BB10122CE
:1064400018477047B0A605000048704701000003D8
:1064500010B5134C204650F0C3F8F0B16368A16842
:106460001B6822691B030AD40E490F4840F2FB3215
:1064700049F09DFE0B4840F2FB3149F08FFE136856
:1064800043F4002313600B68084A13212046984701
:10649000003818BF0120404210BD4FF0FF30FBE72D
:1064A0009CA60500B6AE0500E7AE0500110006008B
:1064B00037B52B48492149F075FF002001F07CF9E0
:1064C000044648B110F1780F06D02648452149F01E
:1064D00069FF204603B030BD00230193224850F0ED
:1064E0007FF830B3204CA568AB6C4BBB1F484521EF
:1064F00049F058FF0820FFF79DFF1020FFF79AFF93
:1065000000214FF400401BF083F839F0E9FE08F059
:10651000C5FA174818F024FCC6220121154807F0D7
:10652000E1FD07F0F1FE1448492149F03BFF00244A
:10653000CFE71248452149F035FF6FF01204C8E754
:1065400001AA0421204698470028CFD1019B002BA7
:10655000D0D1002140F6CD401BF05AF8C4E700BF6F
:10656000FFAE050030AF0500B0A605006AAF05001C
:106570007163000061630000A8AF05004FAF050024
:1065800070B589B30668304649F0A9FB012201467F
:106590000446304649F06BFBC30708D4134914483E
:1065A000AF2249F004FEAF21104849F0F7FD214623
:1065B000304649F072FB251829460022304649F042
:1065C00056FB2D1AAC4206D008490948B72249F0BB
:1065D000EEFDB721E8E72146304649F064FB21464D
:1065E000BDE8704049F0A0BC70BD00BFDCAF050045
:1065F000E7AE05002DE9F84306681446B2680F4679
:106600004B1EB2F5004F34BF042108213B4010D08F
:10661000C7F1000909EA0709494503F1FF3028BF1E
:10662000494618420CD11F46BCB900252846BDE892
:10663000F8838F420FD82146BDE8F84349F0B6BC35
:106640002C492D484FF4A27249F0B1FD29484FF46E
:10665000A27149F0A3FD9946E6E7B2EBD40FE4D965
:10666000E319591A104649F044FB0146304649F0F7
:106670009AFB80460028D8D0B368B3F5004F34BFEA
:106680000423082309EBC0051D4435447B1E1D442B
:10669000B5FBF7F57D43A5EB09052946304649F0E2
:1066A0001EFB2C44073424F00704A41B8045074636
:1066B0004FEAE40408D202464146304649F0ADFBB9
:1066C0004146304649F0EEFB3946304649F0E5FA9E
:1066D0003844844208D239463046224649F09DFB70
:1066E0002146304649F0DEFB01223946304649F06A
:1066F000DAFA9BE7DCAF0500E7AE0500B2F5802FC4
:10670000F8B50CD2042A20D83B493C484FF4F97222
:1067100049F04DFD4FF4F971374849F03FFD08232A
:10672000D21ACC1D114424F0070421F00701091BE3
:1067300017294FEAD1060AD82F49304840F2FB12F8
:1067400049F035FD40F2FB11E6E70423E8E70027B6
:1067500004603146A660E760304649F0D3FA012173
:1067600085000246304649F0C4FA1B35ED0828443E
:10677000B04234D804F10C013B4638469A4237DA2D
:106780002A462046002149F0A6FA00231A46194657
:10679000204649F077FA771B19462046012249F036
:1067A00082FA3A46294649F096FA2B4600222946B3
:1067B000204649F067FA3146204649F08CFA3B46BC
:1067C00031462046002249F05DFA3146204601223A
:1067D00049F069FA2946BDE8F84049F063BB06492B
:1067E00006484FF4037249F0E2FC4FF4037193E75B
:1067F00041F8040F0133C1E7DCAF0500E7AE050047
:10680000014B1B68184700BF00050020014B1860B2
:10681000704700BF0005002007B50B460021024667
:1068200000910348FEF7C4FB03B05DF804FB00BF12
:106830000168000030B587B00025CDE903010446AA
:10684000009503A905480595FEF7B2FBDDE9043084
:106850009842B8BF255407B030BD00BF15000500F1
:1068600008B50446EFF31183402383F31288BFF386
:106870006F8F07F015F9204602F05EF9024849F0E3
:10688000DBFB49F068FFFCE716B005002DE9F84F87
:1068900004460846A38B1907164612D4022803F0B3
:1068A000070162D1204649F0AAFC88B101380428CA
:1068B00000F22581DFE810F0590023017E00C800B6
:1068C000F50001280CBF43F0100143F02001A18323
:1068D00004F114001BF036F9002800F0AB8086F3B9
:1068E0001188BFF36F8FBDE8F88F03F00702501FC8
:1068F00001281ED80020062A2768C4E9000014D108
:106900003A4603E0E08B0130E0831268002AF9D1B7
:1069100023F0070343F00202A283204649F06FFCF4
:1069200090B342F02002A2832EE023F007039AB234
:10693000F2E7042A33D123F007039AB2A283204658
:1069400049F05DFC10B142F02002A283A38B03F05A
:106950000709894540F0DC80A18BCA0640F12181FE
:1069600021F01003A38301F00701D4F81880A38B52
:10697000B8F1000FB9DA0022276823F00703C4E951
:10698000002243F00103A383A38B03F00709894589
:1069900040F0BF80002FDFD00025AA4640E08549A7
:1069A000854840F21B1249F002FC40F21B1181485D
:1069B00049F0F4FB41B17F497F484FF4AB7249F095
:1069C000F6FB4FF4AB71F2E7236843B979497A4893
:1069D00040F2571249F0EBFB40F25711E7E7236909
:1069E0001D6845B9734974484FF4AD7249F0DFFB37
:1069F0004FF4AD71DBE7A38B23F0070343F00603ED
:106A00009BB2A3830F4688464FF00609A268002A6E
:106A100040F08180002F40F08180002D9CD0BA464C
:106A200043F0080304F1140BA38358461BF08AF8C3
:106A3000002875D16149604840F2311249F0B7FB36
:106A400040F231115D48B3E7022908D059495A484C
:106A500040F25D1249F0ABFB40F25D11A7E7E78B16
:106A600047B1544954484FF4AF7249F0A0FB4FF47A
:106A7000AF719CE723695D6845B94E494E4840F2C5
:106A8000611249F094FB40F2611190E7A38B23F06F
:106A9000070343F004039BB2A383B8464FF00409F5
:106AA000B4E7012908D0434943484FF4B27249F092
:106AB0007EFB4FF4B2717AE7236843B93D493E4803
:106AC00040F2651249F073FB40F265116FE72369EC
:106AD0009D6845B9374938484FF4B47249F067FBAF
